:020000040000fa
:080000000002040000000000f2
:020000040000fa
:04000800c80200002a
:020000040000fa
:04000c00c802000026
:020000040000fa
:04001000c802000022
:020000040000fa
:04001400c80200001e
:020000040000fa
:04001800c80200001a
:020000040000fa
:04001c00c802000016
:020000040000fa
:04002000c802000012
:020000040000fa
:04002400c80200000e
:020000040000fa
:04002800c80200000a
:020000040000fa
:04002c00c802000006
:020000040000fa
:04003000c802000002
:020000040000fa
:04003400c8020000fe
:020000040000fa
:04003800c8020000fa
:020000040000fa
:04003c00c8020000f6
:020000040000fa
:04004000c8020000f2
:020000040000fa
:04004400c8020000ee
:020000040000fa
:04004800c8020000ea
:020000040000fa
:04004c00c8020000e6
:020000040000fa
:04005000c8020000e2
:020000040000fa
:04005400c8020000de
:020000040000fa
:04005800c8020000da
:020000040000fa
:04005c00c8020000d6
:020000040000fa
:04006000c8020000d2
:020000040000fa
:04006400c8020000ce
:020000040000fa
:04006800c8020000ca
:020000040000fa
:04006c00c8020000c6
:020000040000fa
:04007000c8020000c2
:020000040000fa
:04007400c8020000be
:020000040000fa
:04007800c8020000ba
:020000040000fa
:04007c00c8020000b6
:020000040000fa
:04008000c8020000b2
:020000040000fa
:04008400c8020000ae
:020000040000fa
:04008800c8020000aa
:020000040000fa
:04008c00c8020000a6
:020000040000fa
:04009000c8020000a2
:020000040000fa
:04009400c80200009e
:020000040000fa
:04009800c80200009a
:020000040000fa
:04009c00c802000096
:020000040000fa
:0400a000c802000092
:020000040000fa
:0400a400c80200008e
:020000040000fa
:0400a800c80200008a
:020000040000fa
:0400ac00c802000086
:020000040000fa
:0400b000c802000082
:020000040000fa
:0400b400c80200007e
:020000040000fa
:0400b800c80200007a
:020000040000fa
:0400bc00c802000076
:020000040000fa
:0400c000c802000072
:020000040000fa
:0400c400c80200006e
:020000040000fa
:0400c800c80200006a
:020000040000fa
:0400cc00c802000066
:020000040000fa
:0400d000c802000062
:020000040000fa
:0400d400c80200005e
:020000040000fa
:0400d800c80200005a
:020000040000fa
:0400dc00c802000056
:020000040000fa
:0400e000c802000052
:020000040000fa
:0400e400c80200004e
:020000040000fa
:0400e800c80200004a
:020000040000fa
:0400ec00c802000046
:020000040000fa
:0400f000c802000042
:020000040000fa
:0400f400c80200003e
:020000040000fa
:0400f800c80200003a
:020000040000fa
:0400fc00c802000036
:020000040000fa
:04010000c802000031
:020000040000fa
:04010400c80200002d
:020000040000fa
:04010800c802000029
:020000040000fa
:04010c00c802000025
:020000040000fa
:04011000c802000021
:020000040000fa
:04011400c80200001d
:020000040000fa
:04011800c802000019
:020000040000fa
:04011c00c802000015
:020000040000fa
:04012000c802000011
:020000040000fa
:04012400c80200000d
:020000040000fa
:04012800c802000009
:020000040000fa
:04012c00c802000005
:020000040000fa
:04013000c802000001
:020000040000fa
:04013400c8020000fd
:020000040000fa
:04013800c8020000f9
:020000040000fa
:04013c00c8020000f5
:020000040000fa
:04014000c8020000f1
:020000040000fa
:04014400c8020000ed
:020000040000fa
:04014800c8020000e9
:020000040000fa
:04020800c802000028
:020000040000fa
:04020c00c802000024
:020000040000fa
:04021000c802000020
:020000040000fa
:04021400c80200001c
:020000040000fa
:04021800c802000018
:020000040000fa
:04021c00c802000014
:020000040000fa
:04022000c802000010
:020000040000fa
:04022400c80200000c
:020000040000fa
:04022800c802000008
:020000040000fa
:04022c00c802000004
:020000040000fa
:04023000c802000000
:020000040000fa
:04023400c8020000fc
:020000040000fa
:04023800c8020000f8
:020000040000fa
:04023c00c8020000f4
:020000040000fa
:04024000c8020000f0
:020000040000fa
:04024400c8020000ec
:020000040000fa
:04024800c8020000e8
:020000040000fa
:04024c00c8020000e4
:020000040000fa
:04025000c8020000e0
:020000040000fa
:04025400c8020000dc
:020000040000fa
:04025800c8020000d8
:020000040000fa
:04025c00c8020000d4
:020000040000fa
:04026000c8020000d0
:020000040000fa
:04026400c8020000cc
:020000040000fa
:04026800c8020000c8
:020000040000fa
:04026c00c8020000c4
:020000040000fa
:04027000c8020000c0
:020000040000fa
:04027400c8020000bc
:020000040000fa
:04027800c8020000b8
:020000040000fa
:04027c00c8020000b4
:020000040000fa
:04028000c8020000b0
:020000040000fa
:04028400c8020000ac
:020000040000fa
:04028800c8020000a8
:020000040000fa
:04028c00c8020000a4
:020000040000fa
:04029000c8020000a0
:020000040000fa
:04029400c80200009c
:020000040000fa
:04029800c802000098
:020000040000fa
:04029c00c802000094
:020000040000fa
:0402a000c802000090
:020000040000fa
:0402a400c80200008c
:020000040000fa
:0402a800c802000088
:020000040000fa
:0402ac00c802000084
:020000040000fa
:0402b000c802000080
:020000040000fa
:0402b400c80200007c
:020000040000fa
:0402b800c802000078
:020000040000fa
:0402bc00c802000074
:020000040000fa
:0402c000c802000070
:020000040000fa
:0402c400c80200006c
:020000040000fa
:0402c800c802000068
:020000040000fa
:0402cc00c802000064
:020000040000fa
:0402d000c802000060
:020000040000fa
:0402d400c80200005c
:020000040000fa
:0402d800c802000058
:020000040000fa
:0402dc00c802000054
:020000040000fa
:0402e000c802000050
:020000040000fa
:0402e400c80200004c
:020000040000fa
:0402e800c802000048
:020000040000fa
:0402ec00c802000044
:020000040000fa
:0402f000c802000040
:020000040000fa
:0402f400c80200003c
:020000040000fa
:0402f800c802000038
:020000040000fa
:0402fc00c802000034
:020000040000fa
:04030000c80200002f
:020000040000fa
:04030400c80200002b
:020000040000fa
:04030800c802000027
:020000040000fa
:04030c00c802000023
:020000040000fa
:04031000c80200001f
:020000040000fa
:04031400c80200001b
:020000040000fa
:04031800c802000017
:020000040000fa
:04031c00c802000013
:020000040000fa
:04032000c80200000f
:020000040000fa
:04032400c80200000b
:020000040000fa
:04032800c802000007
:020000040000fa
:04032c00c802000003
:020000040000fa
:04033000c8020000ff
:020000040000fa
:04033400c8020000fb
:020000040000fa
:04033800c8020000f7
:020000040000fa
:04033c00c8020000f3
:020000040000fa
:04034000c8020000ef
:020000040000fa
:04034400c8020000eb
:020000040000fa
:04034800c8020000e7
:020000040000fa
:100400004f8020000e7f22000e01880000000000b7
:10041000000020000000e000020032000001200087
:1004200020028800140007005b0007000000e000c5
:1004300003003a00e08b200001002000020037009a
:100440000000200001002000810f70000100320038
:1004500014000700000020000000e000020032004d
:1004600000000200000000005a0602000000000028
:100470000040da000000fe004440a90060052000b2
:100480000000e0000300320000002000a00188000e
:100490004440a800000006008a1f78008b1f7800e7
:1004a0000000060091018800800478000000eb0045
:1004b0001a003700e284440032a0b4009905ba0063
:1004c000e284440032a0b4009906ba00e2844400f9
:1004d00032a0b4000006eb00476fde00fd07b2005b
:1004e000636ce10003003a00ebff07000000eb0043
:1004f0000a003700606ce10004003a00005deb0088
:100500008b05e900fdff3e00040037006168e10053
:10051000010032000086eb000b00070019c7ba008b
:100520001905ba000e04e00003003a000a00e000da
:10053000e0ff3a0000000600fe07b2009e018800be
:100540008a047800f5ff3700395dba008b05e900b1
:100550000c003200295dba008b05e900080032006a
:100560000c00e00003003a00e284440032a0b40032
:10057000f5ff370019ddba008b05e900faff3a00f4
:100580008904e800e184440032a0b40000000600c1
:100590000040da000000fe00000005000000e90055
:1005a0008000eb0000408800114088000000060039
:1005b000d2f2270053c9240000408000114080007f
:1005c0000700070061014000e08148000240880008
:1005d000134088004118de000100200000000600e2
:1005e000020ab900001bb9000200b80081004200f5
:0805f000810043000000060039
:020000040000fa
:1005f800507200006573000073200000746f0000e3
:10060800207300007461000072740000004f000045
:100618006e6c0000792000007072000065730000a5
:100628007320000077680000656e0000206c0000f1
:1006380069670000687400002069000073200000ea
:1006480047520000454500004e000000526f000070
:10065800756e00006420000000470000657400000b
:100668002072000065610000647900002e2e0000f1
:100678002e000000474f0000210000004e690000d6
:100688006365000021000000416c00006c20000040
:0c069800646f00006e650000210000008f
:020000040000fa
:1006a4000200fa00000f7800020037007e3e0900c5
:1006b400000000001e00780000f0a7000000ea001f
:1006c4000000ea004f00de00004078001e0fe90041
:1006d4000004e000f5ff3a000080fa000000060084
:1006e4000800fa00100798002107980032079800c4
:1006f40070002000000f78000b003700110020006c
:100704001e0078008008dd001e009000008060005c
:100714000000e000020034009002070001003700ee
:10072400870207001e0fe9001e0078000000e000a9
:10073400f2ff3d0070002000000f78000b0037002e
:10074400110020001e0078008008dd002e009000bb
:10075400008060000000e000020034007f02070017
:1007640001003700760207001e0fe9001e00780022
:100774000000e000f2ff3d0070002000000f780050
:100784000b003700110020001e0078008008dd00f7
:100794003e009000008060000000e0000200340091
:1007a4006e02070001003700650207001e0fe90012
:1007b4001e0078000000e000f2ff3d005a0207002e
:1007c4000080fa00000006000000fa00213a8000d0
:1007d400f08f2f0000806000203a88000080eb003a
:1007e40060198800e0ff2f00001688000008200030
:1007f40040168800c422ef00cc22ef0007e2a900d3
:10080400d00920002010880007e2a8006ae0a800b0
:1008140050002000a2ff0700cac2a900a0002000c7
:100824009fff0700cac2a800100020009cff070019
:100834000080fa00000006000000fa00000000003a
:100844005116800000082000008060000000e000d5
:10085400fbff3a001000200020168800200320002f
:100864008fff0700000000005116800000082000e0
:10087400008060000000e000fbff32002003200045
:1008840087ff0700c422ef000080fa000000060082
:100894000200fa00004f78000602a80000000000e1
:1008a40030108000610060000000e000fcff3a00ae
:1008b4008620a90080072000101088000000000096
:1008c4004110800000002400008060000000e0006f
:1008d4000400320030048000620060000000e00088
:1008e400f7ff32008620a9000222ef00000000007a
:1008f4004110800000002400008060000000e0003f
:100904000400320030048000620060000000e00057
:10091400f7ff32008620a9001e00fb00101088009b
:1009240000000000411080000000240000806000ee
:100934000000e00004003200300480006200600027
:100944000000e000f7ff32000642a80000000000ab
:1009540030108000640060000000e000fcff3a00fa
:100964000080fa00000006000000fa00a0c3b300f3
:10097400c7ff070090c0b300c5ff070060c0b30005
:10098400c3ff0700e0c1b300c1ff070090c3b30079
:10099400bfff0700b0c1b300bdff0700e0c6b3004e
:1009a400bbff070060c5b300b9ff0700a0c7b300d1
:1009b400b7ff070080c3b300b5ff0700f0c0b30062
:1009c400b3ff0700a0c3b300b1ff070090c0b3009a
:1009d400afff0700a0c1b300adff0700c0c3b30061
:1009e400abff070010c0b300a9ff07000080fa00a6
:1009f400000006000200fa00004f7800114798003a
:100a04001e407800c500dd001e40900000c040007c
:100a14000074a0009eff07000080fa00000006009a
:100a24000200fa00004f78000602a800000000004f
:100a340030108000610060000000e000fcff3a001c
:100a44008620a90080072000101088000000000004
:100a54004110800000002400008060000000e000dd
:100a64000400320030048000620060000000e000f6
:100a7400f7ff32008620a90000042000101088002f
:100a8400000000004110800000002400008060008d
:100a94000000e000040032003004800062006000c6
:100aa4000000e000f7ff32008620a9001e00fb00d2
:100ab4001010880000000000411080000000240095
:100ac400008060000000e000040032003004800078
:100ad400620060000000e000f7ff32000642a80058
:100ae4000000000030108000640060000000e0009e
:100af400fcff3a000080fa00000006000200fa0041
:100b0400000f7800040037001e00780010407800c1
:100b14001e0fe800c2ff07001e0078001040780096
:100b24000004e000f8ff3a000080fa00000006002c
:100b34000000fa0010c0b30055ff07000080fa005f
:100b4400000006001400fa0070079800010f9800d6
:100b5400120f98000000eb00000f7800010037002e
:100b64001e0fe8001e007800fe0090000080400088
:100b7400104078000004e000f9ff3a009e0890005d
:100b84000e08900000017800110009008200d800ce
:100b940050079800a0002000100798000000eb0008
:100ba400200798003c0037008040eb000040eb0039
:100bb40090ff07000000eb003007980005003700a5
:100bc40000c2b30096ff07003e0090000000e8005a
:100bd400300798003e009000e90f5000f8ff340001
:100be4001e0090000000e00001003d000000eb004a
:100bf40000407800804078000040eb007dff070053
:100c04000000eb0040079800120037009e0090009f
:100c14004e00900000804000600798006e00900035
:100c24000000e000080035006e009000e90f50005d
:100c340005003c004e009000fe0090000080400043
:100c44001040780076ff07004e0090000000e80096
:100c5400400798004e0090009e0f5000ebff3500b7
:100c64001e0090000000e900100798009e00ea00b2
:100c74001e009000808f500002003400a00020006d
:100c8400100798000e08900085fe07002e009000c3
:100c94000000e80020079800ae0090005e0090007d
:100ca400808f5000c0ff35000080fa00000006006d
:100cb4000600fa00c4fe07002bff070082bb2000d9
:100cc400a10f2000c02f28009eff0700dafe0700b6
:100cd40002712200810c2000b030280099ff070027
:100ce40010002000000f78005e00370090ff07001e
:100cf4008040eb000040eb003eff0700a0322800dc
:100d04007eff07001e007800004078000043b0001a
:100d140043ff07008038210061fe070084ff0700bd
:100d24008040eb000040eb0032ff07001033280046
:100d340072ff0700c05d200059fe07001bfe07007c
:100d44001177210001017800110009000200d80088
:100d54008000fd0080007800007d200000804000bd
:100d6400100798001e0090004dfe07000ffe0700bc
:100d74003100200001017800110009000200d800b0
:100d84008000fd000000e800200798002e0090007d
:100d9400e20f500009003200e30f5000230032003c
:100da400e10f500026003a000001eb008000eb0048
:100db400f00f20003e000700210037000001eb0087
:100dc400f10f20000000eb003900070058ff070076
:100dd4008040eb000040eb0006ff0700e0332800f2
:100de40046ff07000001eb00f10f20000000eb00bc
:100df4003bfe070090fe07000001eb008000eb00c3
:100e04000000eb0036fe070049ff07008040eb00be
:100e140010c0b300f7fe07002034280037ff070096
:100e2400c05d20001efe070005003700f20f200001
:100e34008000eb000000eb001d0007000000000034
:100e44003bff07008040eb000040eb00e9fe070099
:100e54008034280029ff070080bb200010fe070013
:100e64001e0fe8001e007800e50f50009fff3400bd
:100e74000000eb000080fa00000006000400fa0005
:100e8400100798000000eb00000f78000200370004
:100e9400a80007001e0fe8001e0090009e007800c6
:100ea400808f5000faff35000080fa000000060031
:100eb4000800fa00100798002107980032079800ec
:100ec40070002000000f78000b0037001100200094
:100ed4001e0078008008dd001e0090000080600085
:100ee4000000e000020034009c000700010037000d
:100ef400930007001e0fe9001e0078000000e000c8
:100f0400f2ff3d0070002000000f78000b00370056
:100f1400110020001e0078008008dd002e009000e3
:100f2400008060000000e000020034008b00070035
:100f340001003700820007001e0fe9001e00780040
:100f44000000e000f2ff3d0070002000000f780078
:100f54000b003700110020001e0078008008dd001f
:100f64003e009000008060000000e00002003400b9
:100f74007a00070001003700710007001e0fe90026
:100f84001e0078000000e000f2ff3d00660007004c
:100f94000080fa00000006000e00fa0060079800c6
:100fa400f00f2000000f78000c0037009e0078003e
:100fb40021079800f00f20001e0050003007980011
:100fc4003e0190008000eb002e009000b8ff070067
:100fd40010002000a9ff07001e0fe9001e00780082
:100fe4000000e000f1ff3c00f00f20001007980023
:100ff4000f0037009e00900041079800f10f200079
:101004001e00900000805000500798004e01900090
:101014008000eb005e009000a5ff07001000200098
:1010240096ff07001e0090000000e90010079800da
:101034001e0090000000e000eeff3c000080fa007b
:10104400000006000600fa00100798002107980027
:101054000040eb00004f78001e009000ae009000ae
:101064004008de00004f78001e4078000080fa003f
:10107400000006000600fa001007980021079800f7
:101084000040eb00004f78001e009000ae0090007e
:101094004809dd004800de0000007100c808de00d9
:1010a400004f78001e4078000080fa00000006001f
:1010b4000600fa0010079800210798000040eb0092
:1010c400004f78001e009000004f78001e4078000a
:1010d4000080fa00000006000400fa00889fbe00a9
:1010e400008fbe001e00be00f1ff07008084fb00dd
:1010f4001e00be00dfff07000084fb001e00be00d0
:10110400d0ff07000080fb00090178008800780008
:1011140067ff0700a000200058ff07004f04be002f
:101124000080fa00000006003906090000000000f3
:1011340000000600793e09000000000000000600df
:10114400c422ec000300090000000000c422ef00e8
:10115400050009000000000000000600c422ec00a5
:101164000800090000000000c422ef00020009008a
:0811740000000000000006006d
:020000040000fa
:10117c000008000004000000000000000000000057
:020000040000fa
:020000040001f9
:0457f8000ff90000a5
:020000040000fa
:020000040001f9
:0457fc007f3f0000eb
:00000001FF
