:020000040000fa
:080000000002040000000000f2
:020000040000fa
:04000800c80200002a
:020000040000fa
:04000c00c802000026
:020000040000fa
:04001000c802000022
:020000040000fa
:04001400c80200001e
:020000040000fa
:04001800c80200001a
:020000040000fa
:04001c00c802000016
:020000040000fa
:04002000c802000012
:020000040000fa
:04002400c80200000e
:020000040000fa
:04002800c80200000a
:020000040000fa
:04002c00c802000006
:020000040000fa
:04003000c802000002
:020000040000fa
:04003400c8020000fe
:020000040000fa
:04003800c8020000fa
:020000040000fa
:04003c00c8020000f6
:020000040000fa
:04004000c8020000f2
:020000040000fa
:04004400c8020000ee
:020000040000fa
:04004800c8020000ea
:020000040000fa
:04004c00c8020000e6
:020000040000fa
:04005000c8020000e2
:020000040000fa
:04005400c8020000de
:020000040000fa
:04005800c8020000da
:020000040000fa
:04005c00c8020000d6
:020000040000fa
:04006000c8020000d2
:020000040000fa
:04006400c8020000ce
:020000040000fa
:04006800c8020000ca
:020000040000fa
:04006c00c8020000c6
:020000040000fa
:04007000c8020000c2
:020000040000fa
:04007400c8020000be
:020000040000fa
:04007800c8020000ba
:020000040000fa
:04007c00c8020000b6
:020000040000fa
:04008000c8020000b2
:020000040000fa
:04008400c8020000ae
:020000040000fa
:04008800c8020000aa
:020000040000fa
:04008c00c8020000a6
:020000040000fa
:04009000c8020000a2
:020000040000fa
:04009400c80200009e
:020000040000fa
:04009800c80200009a
:020000040000fa
:04009c00c802000096
:020000040000fa
:0400a000c802000092
:020000040000fa
:0400a400c80200008e
:020000040000fa
:0400a800c80200008a
:020000040000fa
:0400ac00c802000086
:020000040000fa
:0400b000c802000082
:020000040000fa
:0400b400c80200007e
:020000040000fa
:0400b800c80200007a
:020000040000fa
:0400bc00c802000076
:020000040000fa
:0400c000c802000072
:020000040000fa
:0400c400c80200006e
:020000040000fa
:0400c800c80200006a
:020000040000fa
:0400cc00c802000066
:020000040000fa
:0400d000c802000062
:020000040000fa
:0400d400c80200005e
:020000040000fa
:0400d800c80200005a
:020000040000fa
:0400dc00c802000056
:020000040000fa
:0400e000c802000052
:020000040000fa
:0400e400c80200004e
:020000040000fa
:0400e800c80200004a
:020000040000fa
:0400ec00c802000046
:020000040000fa
:0400f000c802000042
:020000040000fa
:0400f400c80200003e
:020000040000fa
:0400f800c80200003a
:020000040000fa
:0400fc00c802000036
:020000040000fa
:04010000c802000031
:020000040000fa
:04010400c80200002d
:020000040000fa
:04010800c802000029
:020000040000fa
:04010c00c802000025
:020000040000fa
:04011000c802000021
:020000040000fa
:04011400c80200001d
:020000040000fa
:04011800c802000019
:020000040000fa
:04011c00c802000015
:020000040000fa
:04012000c802000011
:020000040000fa
:04012400c80200000d
:020000040000fa
:04012800c802000009
:020000040000fa
:04012c00c802000005
:020000040000fa
:04013000c802000001
:020000040000fa
:04013400c8020000fd
:020000040000fa
:04013800c8020000f9
:020000040000fa
:04013c00c8020000f5
:020000040000fa
:04014000c8020000f1
:020000040000fa
:04014400c8020000ed
:020000040000fa
:04014800c8020000e9
:020000040000fa
:04020800c802000028
:020000040000fa
:04020c00c802000024
:020000040000fa
:04021000c802000020
:020000040000fa
:04021400c80200001c
:020000040000fa
:04021800c802000018
:020000040000fa
:04021c00c802000014
:020000040000fa
:04022000c802000010
:020000040000fa
:04022400c80200000c
:020000040000fa
:04022800c802000008
:020000040000fa
:04022c00c802000004
:020000040000fa
:04023000c802000000
:020000040000fa
:04023400c8020000fc
:020000040000fa
:04023800c8020000f8
:020000040000fa
:04023c00c8020000f4
:020000040000fa
:04024000c8020000f0
:020000040000fa
:04024400c8020000ec
:020000040000fa
:04024800c8020000e8
:020000040000fa
:04024c00c8020000e4
:020000040000fa
:04025000c8020000e0
:020000040000fa
:04025400c8020000dc
:020000040000fa
:04025800c8020000d8
:020000040000fa
:04025c00c8020000d4
:020000040000fa
:04026000c8020000d0
:020000040000fa
:04026400c8020000cc
:020000040000fa
:04026800c8020000c8
:020000040000fa
:04026c00c8020000c4
:020000040000fa
:04027000c8020000c0
:020000040000fa
:04027400c8020000bc
:020000040000fa
:04027800c8020000b8
:020000040000fa
:04027c00c8020000b4
:020000040000fa
:04028000c8020000b0
:020000040000fa
:04028400c8020000ac
:020000040000fa
:04028800c8020000a8
:020000040000fa
:04028c00c8020000a4
:020000040000fa
:04029000c8020000a0
:020000040000fa
:04029400c80200009c
:020000040000fa
:04029800c802000098
:020000040000fa
:04029c00c802000094
:020000040000fa
:0402a000c802000090
:020000040000fa
:0402a400c80200008c
:020000040000fa
:0402a800c802000088
:020000040000fa
:0402ac00c802000084
:020000040000fa
:0402b000c802000080
:020000040000fa
:0402b400c80200007c
:020000040000fa
:0402b800c802000078
:020000040000fa
:0402bc00c802000074
:020000040000fa
:0402c000c802000070
:020000040000fa
:0402c400c80200006c
:020000040000fa
:0402c800c802000068
:020000040000fa
:0402cc00c802000064
:020000040000fa
:0402d000c802000060
:020000040000fa
:0402d400c80200005c
:020000040000fa
:0402d800c802000058
:020000040000fa
:0402dc00c802000054
:020000040000fa
:0402e000c802000050
:020000040000fa
:0402e400c80200004c
:020000040000fa
:0402e800c802000048
:020000040000fa
:0402ec00c802000044
:020000040000fa
:0402f000c802000040
:020000040000fa
:0402f400c80200003c
:020000040000fa
:0402f800c802000038
:020000040000fa
:0402fc00c802000034
:020000040000fa
:04030000c80200002f
:020000040000fa
:04030400c80200002b
:020000040000fa
:04030800c802000027
:020000040000fa
:04030c00c802000023
:020000040000fa
:04031000c80200001f
:020000040000fa
:04031400c80200001b
:020000040000fa
:04031800c802000017
:020000040000fa
:04031c00c802000013
:020000040000fa
:04032000c80200000f
:020000040000fa
:04032400c80200000b
:020000040000fa
:04032800c802000007
:020000040000fa
:04032c00c802000003
:020000040000fa
:04033000c8020000ff
:020000040000fa
:04033400c8020000fb
:020000040000fa
:04033800c8020000f7
:020000040000fa
:04033c00c8020000f3
:020000040000fa
:04034000c8020000ef
:020000040000fa
:04034400c8020000eb
:020000040000fa
:04034800c8020000e7
:020000040000fa
:100400004f8020000e7f22000e01880000000000b7
:10041000000020000000e000020032000001200087
:1004200020028800140007005b0007000000e000c5
:1004300003003a00205d2000010020000200370088
:100440000000200001002000810f70000100320038
:1004500014000700000020000000e000020032004d
:1004600000000200000000004e0502000000000035
:100470000040da000000fe004440a9000000200017
:100480000000e0000300320000002000a00188000e
:100490004440a800000006008a1f78008b1f7800e7
:1004a0000000060091018800800478000000eb0045
:1004b0001a003700e284440032a0b4009905ba0063
:1004c000e284440032a0b4009906ba00e2844400f9
:1004d00032a0b4000006eb00476fde00fd07b2005b
:1004e000636ce10003003a00ebff07000000eb0043
:1004f0000a003700606ce10004003a00005deb0088
:100500008b05e900fdff3e00040037006168e10053
:10051000010032000086eb000b00070019c7ba008b
:100520001905ba000e04e00003003a000a00e000da
:10053000e0ff3a0000000600fe07b2009e018800be
:100540008a047800f5ff3700395dba008b05e900b1
:100550000c003200295dba008b05e900080032006a
:100560000c00e00003003a00e284440032a0b40032
:10057000f5ff370019ddba008b05e900faff3a00f4
:100580008904e800e184440032a0b40000000600c1
:100590000040da000000fe00000005000000e90055
:1005a0008000eb0000408800114088000000060039
:1005b000d2f2270053c9240000408000114080007f
:1005c0000700070061014000e08148000240880008
:1005d000134088004118de000100200000000600e2
:1005e000020ab900001bb9000200b80081004200f5
:0805f000810043000000060039
:020000040000fa
:1005f8000000fa00213a8000f08f2f000080600090
:10060800203a8800f0ff290060198800e0ff2f00d9
:1006180000168800c422ef000080fa0000000600df
:100628000400fa00100798000000eb00000f7800a3
:1006380002003700480107001e0fe8001e00900066
:100648009e007800808f5000faff35000080fa0085
:10065800000006000800fa0010079800210798001b
:100668003207980070002000000f78000b00370058
:10067800110020001e0078008008dd001e00900098
:10068800008060000000e000020034003c01070028
:1006980001003700330107001e0fe9001e00780033
:1006a8000000e000f2ff3d0070002000000f78001d
:1006b8000b003700110020001e0078008008dd00c4
:1006c8002e009000008060000000e000020034006e
:1006d8002b01070001003700220107001e0fe90067
:1006e8001e0078000000e000f2ff3d0070002000ce
:1006f800000f78000b003700110020001e00780062
:100708008008dd003e009000008060000000e000ee
:10071800020034001a010700010037001101070028
:100728001e0fe9001e0078000000e000f2ff3d0007
:10073800060107000080fa00000006000e00fa001b
:1007480060079800f00f2000000f78000c003700b9
:100758009e00780021079800f00f20001e0050002e
:10076800300798003e0190008000eb002e009000ba
:10077800b8ff070010002000a9ff07001e0fe900be
:100788001e0078000000e000f1ff3c00f00f2000a0
:10079800100798000f0037009e009000410798004e
:1007a800f10f20001e0090000080500050079800b4
:1007b8004e0190008000eb005e009000a5ff07004e
:1007c8001000200096ff07001e0090000000e900be
:1007d800100798001e0090000000e000eeff3c00ab
:1007e8000080fa00000006000800fa004047980060
:1007f80051479800624798006000b800008fbe001b
:100808004e4090000080fb008000eb00c001dd003e
:10081800020020005e4090000082fb008002eb0096
:100828004828dd00c820de00810070004820dd0077
:1008380000017100818171006e4090000080fb0012
:100848008000eb000000710081807100008fbe0005
:100858001e00be000080fa00000006000600fa0034
:1008680010079800210798000040eb00004f78001f
:100878001e009000ae0090004008de00004f780097
:100888001e4078000080fa00000006000600fa000a
:1008980010079800210798000040eb00004f7800ef
:1008a8001e009000ae0090004809dd004800de0000
:1008b80000007100c808de00004f78001e40780074
:1008c8000080fa00000006000600fa0010079800f1
:1008d800210798000040eb00004f78001e009000b0
:1008e800004f78001e4078000080fa0000000600e3
:1008f8000400fa00889fbe00008fbe001e00be00e4
:10090800f1ff07008084fb001e00be00dfff070028
:100918000084fb001e00be00d0ff07000080fb0023
:1009280009017800880078004aff0700a00020002d
:100938003bff07004f04be000080fa0000000600dd
:100948000200fa00004f78001ecfea0040c5b3004d
:100958009e40780080cf50000d003e001e40780079
:100968006300b90000007800004178009e407800dc
:10097800d00f20000088b9000000780000407800ff
:100988000040e9008040eb0097ff07002300370094
:1009980090cab3009e40780080cf500010003e00ff
:1009a800b0cab3001e4f40009e407800d00f200010
:1009b8000088b90000007800004078000041e90094
:1009c8001e4078006300b9000000780000407800fd
:1009d800804078000040eb0083ff07000f003700dd
:1009e80061c5b3001ecf40009e407800d00f2000a4
:1009f8000088b90000007800004078008041e900d4
:100a08001e4078006300b9000000780000407800bc
:100a18000041eb008340780073ff07000080fa0074
:100a2800000006000400fa000000eb00000f780048
:100a3800050037001e00780000407800c0ff07005e
:100a4800abff07001e0fe800f00f20009e007800a3
:100a5800808f5000f7ff3400f00f20001007980037
:100a6800070037001e00900000407800b4ff070020
:100a78009fff07001e0090000000e9001007980083
:100a88001e0090000000e000f6ff3d000080fa0024
:100a9800000006000400fa00010037000000000012
:100aa800c1fe070071002000010178001100090053
:100ab8000200d8008000fd00008fe8009e0078004a
:100ac800400620000088b90000007800d4fe070026
:100ad800b5fe07003100200001017800110009006f
:100ae8000200d8008000fd000000e8001007980010
:100af8001e009000e20f500009003200e30f500082
:100b08000c003200e10f5000e4ff3a000001eb0056
:100b18008000eb00f00f2000cefe07000a0037002f
:100b28000001eb00f10f20000000eb00c9fe0700f8
:100b380005003700f20f20008000eb000000eb00fa
:100b4800c4fe070000000000d5ff37003906090081
:100b58000000000000000600793e090000000000c7
:100b680000000600c422ec00030009000000000099
:100b7800c422ef0005000900000000000000060084
:100b8800c422ec000800090000000000c422ef00a5
:0c0b980002000900000000000000060040
:020000040000fa
:100ba4000008000004000000000000000000000035
:020000040000fa
:020000040001f9
:0457f8000ff90000a5
:020000040000fa
:020000040001f9
:0457fc007f3f0000eb
:00000001FF
